{
  "_format": "hh-sol-artifact-1",
  "contractName": "WavePortal",
  "sourceName": "contracts/WavePortal.sol",
  "abi": [
    {
      "inputs": [],
      "stateMutability": "nonpayable",
      "type": "constructor"
    },
    {
      "anonymous": false,
      "inputs": [
        {
          "indexed": true,
          "internalType": "address",
          "name": "from",
          "type": "address"
        },
        {
          "indexed": false,
          "internalType": "uint256",
          "name": "timestamp",
          "type": "uint256"
        },
        {
          "indexed": false,
          "internalType": "string",
          "name": "message",
          "type": "string"
        }
      ],
      "name": "NewWave",
      "type": "event"
    },
    {
      "inputs": [],
      "name": "getAllWaves",
      "outputs": [
        {
          "components": [
            {
              "internalType": "address",
              "name": "waver",
              "type": "address"
            },
            {
              "internalType": "string",
              "name": "message",
              "type": "string"
            },
            {
              "internalType": "uint256",
              "name": "timestamp",
              "type": "uint256"
            }
          ],
          "internalType": "struct WavePortal.Wave[]",
          "name": "",
          "type": "tuple[]"
        }
      ],
      "stateMutability": "view",
      "type": "function"
    },
    {
      "inputs": [],
      "name": "getTotalWaves",
      "outputs": [
        {
          "internalType": "uint256",
          "name": "",
          "type": "uint256"
        }
      ],
      "stateMutability": "view",
      "type": "function"
    },
    {
      "inputs": [
        {
          "internalType": "address",
          "name": "",
          "type": "address"
        }
      ],
      "name": "userWaveAdress",
      "outputs": [
        {
          "internalType": "uint256",
          "name": "",
          "type": "uint256"
        }
      ],
      "stateMutability": "view",
      "type": "function"
    },
    {
      "inputs": [
        {
          "internalType": "string",
          "name": "_message",
          "type": "string"
        }
      ],
      "name": "wave",
      "outputs": [],
      "stateMutability": "nonpayable",
      "type": "function"
    }
  ],
  "bytecode": "0x60806040523480156200001157600080fd5b506200005d6040518060400160405280600b81526020017f436f6e7374727563746f720000000000000000000000000000000000000000008152506200006360201b620004bd1760201c565b620001f7565b62000103816040516024016200007a919062000170565b6040516020818303038152906040527f41304fac000000000000000000000000000000000000000000000000000000007bffffffffffffffffffffffffffffffffffffffffffffffffffffffff19166020820180517bffffffffffffffffffffffffffffffffffffffffffffffffffffffff83818316178352505050506200010660201b60201c565b50565b60008151905060006a636f6e736f6c652e6c6f679050602083016000808483855afa5050505050565b60006200013c8262000194565b6200014881856200019f565b93506200015a818560208601620001b0565b6200016581620001e6565b840191505092915050565b600060208201905081810360008301526200018c81846200012f565b905092915050565b600081519050919050565b600082825260208201905092915050565b60005b83811015620001d0578082015181840152602081019050620001b3565b83811115620001e0576000848401525b50505050565b6000601f19601f8301169050919050565b610eb180620002076000396000f3fe608060405234801561001057600080fd5b506004361061004c5760003560e01c80630315c1a714610051578063449d46c0146100815780639a2cdc081461009d578063bd43a908146100bb575b600080fd5b61006b60048036038101906100669190610879565b6100d9565b6040516100789190610b61565b60405180910390f35b61009b600480360381019061009691906108a2565b6100f1565b005b6100a5610321565b6040516100b29190610b61565b60405180910390f35b6100c361036c565b6040516100d09190610a6a565b60405180910390f35b60016020528060005260406000206000915090505481565b60016000808282546101039190610c68565b9250508190555060018060003373ffffffffffffffffffffffffffffffffffffffff1673ffffffffffffffffffffffffffffffffffffffff16815260200190815260200160002060008282546101599190610c68565b925050819055506101c2604051806060016040528060278152602001610e556027913933600160003373ffffffffffffffffffffffffffffffffffffffff1673ffffffffffffffffffffffffffffffffffffffff16815260200190815260200160002054610556565b6102026040518060400160405280601681526020017f257320776176656420772f206d6573736167652025730000000000000000000081525033836105f5565b600260405180606001604052803373ffffffffffffffffffffffffffffffffffffffff16815260200183815260200142815250908060018154018082558091505060019003906000526020600020906003020160009091909190915060008201518160000160006101000a81548173ffffffffffffffffffffffffffffffffffffffff021916908373ffffffffffffffffffffffffffffffffffffffff16021790555060208201518160010190805190602001906102c1929190610759565b506040820151816002015550503373ffffffffffffffffffffffffffffffffffffffff167f5f7e16dc676677766a70e9c5628aa6c54ddb8b6e5188e2ae1e1f17f1ffbea7164283604051610316929190610b7c565b60405180910390a250565b60006103646040518060400160405280601781526020017f5765206861766520256420746f74616c20776176657321000000000000000000815250600054610694565b600054905090565b60606002805480602002602001604051908101604052809291908181526020016000905b828210156104b457838290600052602060002090600302016040518060600160405290816000820160009054906101000a900473ffffffffffffffffffffffffffffffffffffffff1673ffffffffffffffffffffffffffffffffffffffff1673ffffffffffffffffffffffffffffffffffffffff16815260200160018201805461041990610d3c565b80601f016020809104026020016040519081016040528092919081815260200182805461044590610d3c565b80156104925780601f1061046757610100808354040283529160200191610492565b820191906000526020600020905b81548152906001019060200180831161047557829003601f168201915b5050505050815260200160028201548152505081526020019060010190610390565b50505050905090565b610553816040516024016104d19190610a8c565b6040516020818303038152906040527f41304fac000000000000000000000000000000000000000000000000000000007bffffffffffffffffffffffffffffffffffffffffffffffffffffffff19166020820180517bffffffffffffffffffffffffffffffffffffffffffffffffffffffff8381831617835250505050610730565b50565b6105f083838360405160240161056e93929190610af3565b6040516020818303038152906040527f07c81217000000000000000000000000000000000000000000000000000000007bffffffffffffffffffffffffffffffffffffffffffffffffffffffff19166020820180517bffffffffffffffffffffffffffffffffffffffffffffffffffffffff8381831617835250505050610730565b505050565b61068f83838360405160240161060d93929190610aae565b6040516020818303038152906040527fe0e9ad4f000000000000000000000000000000000000000000000000000000007bffffffffffffffffffffffffffffffffffffffffffffffffffffffff19166020820180517bffffffffffffffffffffffffffffffffffffffffffffffffffffffff8381831617835250505050610730565b505050565b61072c82826040516024016106aa929190610b31565b6040516020818303038152906040527f9710a9d0000000000000000000000000000000000000000000000000000000007bffffffffffffffffffffffffffffffffffffffffffffffffffffffff19166020820180517bffffffffffffffffffffffffffffffffffffffffffffffffffffffff8381831617835250505050610730565b5050565b60008151905060006a636f6e736f6c652e6c6f679050602083016000808483855afa5050505050565b82805461076590610d3c565b90600052602060002090601f01602090048101928261078757600085556107ce565b82601f106107a057805160ff19168380011785556107ce565b828001600101855582156107ce579182015b828111156107cd5782518255916020019190600101906107b2565b5b5090506107db91906107df565b5090565b5b808211156107f85760008160009055506001016107e0565b5090565b600061080f61080a84610bd1565b610bac565b90508281526020810184848401111561082757600080fd5b610832848285610cfa565b509392505050565b60008135905061084981610e3d565b92915050565b600082601f83011261086057600080fd5b81356108708482602086016107fc565b91505092915050565b60006020828403121561088b57600080fd5b60006108998482850161083a565b91505092915050565b6000602082840312156108b457600080fd5b600082013567ffffffffffffffff8111156108ce57600080fd5b6108da8482850161084f565b91505092915050565b60006108ef83836109fc565b905092915050565b61090081610cbe565b82525050565b61090f81610cbe565b82525050565b600061092082610c12565b61092a8185610c35565b93508360208202850161093c85610c02565b8060005b85811015610978578484038952815161095985826108e3565b945061096483610c28565b925060208a01995050600181019050610940565b50829750879550505050505092915050565b600061099582610c1d565b61099f8185610c46565b93506109af818560208601610d09565b6109b881610e2c565b840191505092915050565b60006109ce82610c1d565b6109d88185610c57565b93506109e8818560208601610d09565b6109f181610e2c565b840191505092915050565b6000606083016000830151610a1460008601826108f7565b5060208301518482036020860152610a2c828261098a565b9150506040830151610a416040860182610a4c565b508091505092915050565b610a5581610cf0565b82525050565b610a6481610cf0565b82525050565b60006020820190508181036000830152610a848184610915565b905092915050565b60006020820190508181036000830152610aa681846109c3565b905092915050565b60006060820190508181036000830152610ac881866109c3565b9050610ad76020830185610906565b8181036040830152610ae981846109c3565b9050949350505050565b60006060820190508181036000830152610b0d81866109c3565b9050610b1c6020830185610906565b610b296040830184610a5b565b949350505050565b60006040820190508181036000830152610b4b81856109c3565b9050610b5a6020830184610a5b565b9392505050565b6000602082019050610b766000830184610a5b565b92915050565b6000604082019050610b916000830185610a5b565b8181036020830152610ba381846109c3565b90509392505050565b6000610bb6610bc7565b9050610bc28282610d6e565b919050565b6000604051905090565b600067ffffffffffffffff821115610bec57610beb610dfd565b5b610bf582610e2c565b9050602081019050919050565b6000819050602082019050919050565b600081519050919050565b600081519050919050565b6000602082019050919050565b600082825260208201905092915050565b600082825260208201905092915050565b600082825260208201905092915050565b6000610c7382610cf0565b9150610c7e83610cf0565b9250827fffffffffffffffffffffffffffffffffffffffffffffffffffffffffffffffff03821115610cb357610cb2610d9f565b5b828201905092915050565b6000610cc982610cd0565b9050919050565b600073ffffffffffffffffffffffffffffffffffffffff82169050919050565b6000819050919050565b82818337600083830152505050565b60005b83811015610d27578082015181840152602081019050610d0c565b83811115610d36576000848401525b50505050565b60006002820490506001821680610d5457607f821691505b60208210811415610d6857610d67610dce565b5b50919050565b610d7782610e2c565b810181811067ffffffffffffffff82111715610d9657610d95610dfd565b5b80604052505050565b7f4e487b7100000000000000000000000000000000000000000000000000000000600052601160045260246000fd5b7f4e487b7100000000000000000000000000000000000000000000000000000000600052602260045260246000fd5b7f4e487b7100000000000000000000000000000000000000000000000000000000600052604160045260246000fd5b6000601f19601f8301169050919050565b610e4681610cbe565b8114610e5157600080fd5b5056fe257320686173207761766564212074686973206164647265737320686173202564207761766573a2646970667358221220345793ebd5dec88012b1fade76a287b76dcc402b961add7a51acb7acc87855a964736f6c63430008040033",
  "linkReferences": {},
  "deployedLinkReferences": {}
}