{
  "_format": "hh-sol-artifact-1",
  "contractName": "WavePortal",
  "sourceName": "contracts/WavePortal.sol",
  "abi": [
    {
      "inputs": [],
      "stateMutability": "nonpayable",
      "type": "constructor"
    },
    {
      "inputs": [],
      "name": "getTotalWaves",
      "outputs": [
        {
          "internalType": "uint256",
          "name": "",
          "type": "uint256"
        }
      ],
      "stateMutability": "view",
      "type": "function"
    },
    {
      "inputs": [],
      "name": "wave",
      "outputs": [],
      "stateMutability": "nonpayable",
      "type": "function"
    },
    {
      "inputs": [
        {
          "internalType": "address",
          "name": "",
          "type": "address"
        }
      ],
      "name": "waves",
      "outputs": [
        {
          "internalType": "uint256",
          "name": "",
          "type": "uint256"
        }
      ],
      "stateMutability": "view",
      "type": "function"
    }
  ],
  "bytecode": "0x608060405234801561001057600080fd5b506100596040518060400160405280600b81526020017f436f6e7374727563746f7200000000000000000000000000000000000000000081525061005e60201b6101d41760201c565b6101e1565b6100fa81604051602401610072919061015f565b6040516020818303038152906040527f41304fac000000000000000000000000000000000000000000000000000000007bffffffffffffffffffffffffffffffffffffffffffffffffffffffff19166020820180517bffffffffffffffffffffffffffffffffffffffffffffffffffffffff83818316178352505050506100fd60201b60201c565b50565b60008151905060006a636f6e736f6c652e6c6f679050602083016000808483855afa5050505050565b600061013182610181565b61013b818561018c565b935061014b81856020860161019d565b610154816101d0565b840191505092915050565b600060208201905081810360008301526101798184610126565b905092915050565b600081519050919050565b600082825260208201905092915050565b60005b838110156101bb5780820151818401526020810190506101a0565b838111156101ca576000848401525b50505050565b6000601f19601f8301169050919050565b6106a6806101f06000396000f3fe608060405234801561001057600080fd5b50600436106100415760003560e01c80632581ccd1146100465780636fe15b44146100765780639a2cdc0814610080575b600080fd5b610060600480360381019061005b91906103e6565b61009e565b60405161006d91906104f6565b60405180910390f35b61007e6100b6565b005b610088610189565b60405161009591906104f6565b60405180910390f35b60016020528060005260406000206000915090505481565b60016000808282546100c8919061052d565b9250508190555060018060003373ffffffffffffffffffffffffffffffffffffffff1673ffffffffffffffffffffffffffffffffffffffff168152602001908152602001600020600082825461011e919061052d565b9250508190555061018760405180606001604052806027815260200161064a6027913933600160003373ffffffffffffffffffffffffffffffffffffffff1673ffffffffffffffffffffffffffffffffffffffff1681526020019081526020016000205461026d565b565b60006101cc6040518060400160405280601781526020017f5765206861766520256420746f74616c2077617665732100000000000000000081525060005461030c565b600054905090565b61026a816040516024016101e89190610466565b6040516020818303038152906040527f41304fac000000000000000000000000000000000000000000000000000000007bffffffffffffffffffffffffffffffffffffffffffffffffffffffff19166020820180517bffffffffffffffffffffffffffffffffffffffffffffffffffffffff83818316178352505050506103a8565b50565b61030783838360405160240161028593929190610488565b6040516020818303038152906040527f07c81217000000000000000000000000000000000000000000000000000000007bffffffffffffffffffffffffffffffffffffffffffffffffffffffff19166020820180517bffffffffffffffffffffffffffffffffffffffffffffffffffffffff83818316178352505050506103a8565b505050565b6103a482826040516024016103229291906104c6565b6040516020818303038152906040527f9710a9d0000000000000000000000000000000000000000000000000000000007bffffffffffffffffffffffffffffffffffffffffffffffffffffffff19166020820180517bffffffffffffffffffffffffffffffffffffffffffffffffffffffff83818316178352505050506103a8565b5050565b60008151905060006a636f6e736f6c652e6c6f679050602083016000808483855afa5050505050565b6000813590506103e081610632565b92915050565b6000602082840312156103f857600080fd5b6000610406848285016103d1565b91505092915050565b61041881610583565b82525050565b600061042982610511565b610433818561051c565b93506104438185602086016105bf565b61044c81610621565b840191505092915050565b610460816105b5565b82525050565b60006020820190508181036000830152610480818461041e565b905092915050565b600060608201905081810360008301526104a2818661041e565b90506104b1602083018561040f565b6104be6040830184610457565b949350505050565b600060408201905081810360008301526104e0818561041e565b90506104ef6020830184610457565b9392505050565b600060208201905061050b6000830184610457565b92915050565b600081519050919050565b600082825260208201905092915050565b6000610538826105b5565b9150610543836105b5565b9250827fffffffffffffffffffffffffffffffffffffffffffffffffffffffffffffffff03821115610578576105776105f2565b5b828201905092915050565b600061058e82610595565b9050919050565b600073ffffffffffffffffffffffffffffffffffffffff82169050919050565b6000819050919050565b60005b838110156105dd5780820151818401526020810190506105c2565b838111156105ec576000848401525b50505050565b7f4e487b7100000000000000000000000000000000000000000000000000000000600052601160045260246000fd5b6000601f19601f8301169050919050565b61063b81610583565b811461064657600080fd5b5056fe257320686173207761766564212074686973206164647265737320686173202564207761766573a264697066735822122019d1273cad5f7266e7d782db48ae904df9dea1da83b70e45f62b8c0a2e01d0ea64736f6c63430008040033",
  "linkReferences": {},
  "deployedLinkReferences": {}
}